:100000000C9435000C945D000C945D000C945D0024
:100010000C945D000C945D000C945D000C945D00EC
:100020000C945D000C945D000C945D000C945D00DC
:100030000C945D000C945D000C945D000C945D00CC
:100040000C94EC020C945D000C9495000C94C70089
:100050000C945D000C945D000C945D000C945D00AC
:100060000C945D000C945D00F70011241FBECFEFCF
:10007000D8E0DEBFCDBF11E0A0E0B1E0ECE3F7E0F7
:1000800002C005900D92AE35B107D9F722E0AEE57A
:10009000B1E001C01D92A430B207E1F710E0CAE65A
:1000A000D0E004C02297FE010E949803C836D10711
:1000B000C9F70E9480020C9471030C94000026E0A2
:1000C00040E855E260E070E08EE591E00E941D029C
:1000D00060E071E08EE591E00E94CD0262E78EE57E
:1000E00091E00E94DA026FE071E08EE591E00E94FB
:1000F000CD0265E68EE591E00E94DA026EE171E0E4
:100100008EE591E00E94CD0263E38EE591E00E94CE
:10011000DA026DE271E08EE591E00E94CD0263E3C8
:100120008EE591E00C94DA0208951F920F920FB6BB
:100130000F9211242F938F939F93EF93FF93E0914E
:100140006E01F0916F018081E0917401F091750171
:1001500082FD12C09081809177018F5F8F73209113
:100160007801821751F0E0917701F0E0E25AFE4FFA
:10017000958F8093770101C08081FF91EF919F91CE
:100180008F912F910F900FBE0F901F9018951F9277
:100190000F920FB60F9211242F933F934F935F93BB
:1001A0006F937F938F939F93AF93BF93EF93FF933F
:1001B0008EE591E00E947501FF91EF91BF91AF91A3
:1001C0009F918F917F916F915F914F913F912F916F
:1001D0000F900FBE0F901F9018958EE591E00E9432
:1001E0003A0121E0892B09F420E0822F0895109232
:1001F00061011092600188EE93E0A0E0B0E080938E
:10020000620190936301A0936401B093650180E45F
:1002100091E090935F0180935E0185EC90E0909374
:100220006B0180936A0184EC90E090936D01809360
:100230006C0180EC90E090936F0180936E0181ECF3
:1002400090E0909371018093700182EC90E0909324
:1002500073018093720186EC90E090937501809316
:100260007401109277011092780110927901109226
:100270007A010895FC01818D228D90E0805C9F4F72
:10028000821B91098F7399270895FC01918D828DAE
:10029000981731F0828DE80FF11D858D90E008955B
:1002A0008FEF9FEF0895FC01918D828D981761F07B
:1002B000828DDF01A80FB11D5D968C91928D9F5F9D
:1002C0009F73928F90E008958FEF9FEF08958DEECA
:1002D00090E0892B49F080E090E0892B29F00E9482
:1002E000ED0081110C9400000895FC01848DDF0164
:1002F000A80FB11DA35ABF4F2C91848D90E0019699
:100300008F739927848FA689B7892C93A089B18987
:100310008C9180648C93938D848D981306C0028891
:10032000F389E02D80818F7D80830895CF93DF93C3
:10033000EC01888D8823C9F0EA89FB89808185FDDD
:1003400005C0A889B9898C9186FD0FC00FB607FC3E
:10035000F5CF808185FFF2CFA889B9898C9185FF7F
:10036000EDCFCE010E947501E7CFDF91CF910895C7
:10037000CF92DF92FF920F931F93CF93DF931F9241
:10038000CDB7DEB76C0181E0D60158968C935897B3
:100390005B969C915B975C968C915C97981307C0D9
:1003A0005096ED91FC915197808185FD2EC0F6010C
:1003B000038D10E00F5F1F4F0F731127F02EF60112
:1003C000848DF81211C00FB607FCF9CFD6015096F4
:1003D000ED91FC915197808185FFF1CFC601698332
:1003E0000E9475016981EBCF838DE80FF11DE35AFF
:1003F000FF4F6083D6015B960C935B975296ED910D
:10040000FC915397808180620CC0D6015696ED9185
:10041000FC91579760835096ED91FC9151978081A4
:100420008064808381E090E00F90DF91CF911F91F5
:100430000F91FF90DF90CF900895BF92CF92DF92FF
:10044000EF92FF92CF93DF93EC016A017B01B22E12
:10045000E889F98982E08083411581EE58076105BA
:100460007105A1F060E079E08DE390E0A7019601CD
:100470000E9474032150310941095109569547954D
:1004800037952795211580E1380798F0E889F98993
:10049000108260E874E88EE190E0A70196010E9466
:1004A00074032150310941095109569547953795F3
:1004B0002795EC85FD853083EE85FF852083188E9A
:1004C000EC89FD89B082EA89FB8980818061808323
:1004D000EA89FB89808188608083EA89FB89808141
:1004E00080688083EA89FB8980818F7D8083DF91AA
:1004F000CF91FF90EF90DF90CF90BF900895089537
:100500000E9436030E947F020E945F00C7E6D1E08E
:100510000E9494002097E1F30E946701F9CFCF92E7
:10052000DF92EF92FF920F931F93CF93DF937C01A3
:100530006A01EB0100E010E00C151D0571F06991F6
:10054000D701ED91FC910190F081E02DC701099553
:10055000892B19F00F5F1F4FEFCFC801DF91CF91AB
:100560001F910F91FF90EF90DF90CF90089561154C
:10057000710581F0DB010D900020E9F7AD014150DC
:100580005109461B570BDC01ED91FC910280F38170
:10059000E02D099480E090E008950C94B702DC010E
:1005A000ED91FC910190F081E02D09946CE471E0F3
:1005B0000C94B7020F931F93CF93DF93EC010E942B
:1005C000CF028C01CE010E94D602800F911FDF91D5
:1005D000CF911F910F9108951F920F920FB60F9216
:1005E00011242F933F938F939F93AF93BF93809149
:1005F000FC019091FD01A091FE01B091FF013091AD
:10060000FB0123E0230F2D3720F40196A11DB11D1E
:1006100005C026E8230F0296A11DB11D2093FB0102
:100620008093FC019093FD01A093FE01B093FF0124
:100630008091000290910102A0910202B091030208
:100640000196A11DB11D8093000290930102A09319
:100650000202B0930302BF91AF919F918F913F919E
:100660002F910F900FBE0F901F901895789484B51E
:10067000826084BD84B5816084BD85B5826085BD9E
:1006800085B5816085BDEEE6F0E080818160808384
:10069000E1E8F0E010828081826080838081816067
:1006A0008083E0E8F0E0808181608083E1EBF0E02E
:1006B000808184608083E0EBF0E0808181608083D2
:1006C000EAE7F0E0808184608083808182608083BB
:1006D0008081816080838081806880831092C100E6
:1006E0000895F8940C949C03A1E21A2EAA1BBB1B3C
:1006F000FD010DC0AA1FBB1FEE1FFF1FA217B307EE
:10070000E407F50720F0A21BB30BE40BF50B661F03
:10071000771F881F991F1A9469F7609570958095C7
:1007200090959B01AC01BD01CF010895EE0FFF1F15
:0C0730000590F491E02D0994F894FFCF9F
:10073C00496E646578205B325D5B305D3A20004920
:10074C006E646578205B325D5B315D3A2000496EEA
:10075C00646578205B325D5B325D3A2000496E64E3
:10076C006578205B325D5B335D3A20000000000051
:10077C00B8018F023A015301450196010D0A006E32
:0E078C00616E00696E66006F7666002E0000DA
:00000001FF
